:0600000000F05BEF04F0CC
:0F0600000048454C4C4F20574F524C44200000AF
:10061000FFFF036E0F0E83160F0E9516959495929D
:1006200095908C948C928C9048EC04F0300EF2EC07
:1006300003F00F0E026E9E0EFFFFE82EFDD7022E76
:10064000FBD7300EF2EC03F00F0E026E9E0EFFFF92
:10065000E82EFDD7022EFBD7320EF2EC03F0FFFF9F
:1006600013EC04F00009D8A4FAD7FFFF13EC04F050
:100670000009D8A4FAD70350F2EC03F0FFFF13EC03
:1006800004F00009D8A4FAD7080EF2EC03F0FFFF3B
:1006900013EC04F00009D8A4FAD70F0EF2EC03F023
:1006A000FFFF13EC04F00009D8A4FAD7010EF2EC16
:1006B00003F0FFFF13EC04F00009D8A4FAD7040EEE
:1006C000F2EC03F0FFFF13EC04F00009D8A4FAD712
:1006D000800E6DEC03F01200FFFFFFFF016E0F0EA6
:1006E00095160F0E831601508009F00B83128C941F
:1006F0008C9253EC04F08C8053EC04F08C900F0E31
:1007000083160138F00BF00B831253EC04F08C804D
:1007100053EC04F08C90F00E95121200FFFFFFFFD7
:1007200011D0FFFF13EC04F00009D8A4FAD702C0DF
:10073000F6FF03C0F7FF0800FFFFF550B0EC03F031
:10074000024A032AFFFF02C0F6FF03C0F7FF0800BA
:10075000FFFFF5500009D8B41200FFFFE2D7FFFFFA
:10076000FFFF016E0F0E95160F0E83160150F00B52
:1007700083128C828C9453EC04F08C8053EC04F044
:100780008C900F0E83160138F00BF00B831253EC94
:1007900004F08C8053EC04F08C90F00E9512120053
:1007A000FFFFFFFF280E08EC03F0FFFF13EC04F03F
:1007B0000009D8A4FAD7280EF2EC03F0FFFF13ECDF
:1007C00004F00009D8A4FAD70F0EF2EC03F0FFFFF3
:1007D00013EC04F00009D8A4FAD7060EF2EC03F0EB
:1007E0001200FFFFFFFF016E0F0E95160F0E83160E
:1007F0000150F00B83128C948C9253EC04F08C809B
:1008000053EC04F08C900F0E83160138F00BF00BB4
:10081000831253EC04F08C8053EC04F08C90F00EB7
:1008200095121200FFFFFFFF8C848C9253EC04F0B2
:100830008C8053EC04F083AE0AD08C9053EC04F01F
:100840008C8053EC04F08C908C94010E0AD0FFFF46
:100850008C9053EC04F08C8053EC04F08C908C94CE
:10086000000EFFFF1200FFFFFFFFD1EC03F0FFFFC0
:1008700013EC04F00009D8A4FAD7000E6DEC03F0D5
:10088000010E026E060E036E8FEC03F0FFFFFED723
:10089000FFFF0F0E016E9E0EFFFFE82EFDD7012E0B
:1008A000FBD71200FFFFFFFF040EFFFFE82EFDD76E
:1008B00000D01200FFFF000EF86E060EF76E00016A
:0608C00034EF04F0FFFF1D
:020000040020DA
:08000000FFFFFFFFFFFFFFFF00
:020000040030CA
:0E000000FF220F0EFF0181FF0FC00FE00F4027
:00000001FF
