:020000040000FA
:060000008EEF02F0120079
:0A00060001007E000000120400005B
:0400100002000000EA
:0C001400D9CFE6FFE1CFD9FF0F0E951603
:100020008316FE0EDB508009F00B83128C948C92A9
:100030000ED80F0E8316FE0EDB38F00BF00B83127A
:1000400006D8F00E9512E552E7CFD9FF120042EC28
:0C00500000F08C8042EC00F08C9012005C
:04005C00FF0EE35060
:10006000036E480E01D04C0EE76EE72EFED7E76A0E
:0C007000E72EFED7032EF7D70000120089
:02007C00120070
:02007E00000080
:0400800078EF02F023
:0C00840000000000000000000000000070
:100090000000000000000000000000000000000060
:1000A00000000000000000001200960EE66E2EEC2C
:1000B00000F0E5521200050EE66E2EEC00F0E5525F
:1000C0001200280EE66EFEEC00F0E55253EC02F052
:1000D0000009FCE1E66A0AEC00F0E552060EE66E65
:1000E00092EC01F0E55253EC02F00009FCE10F0E36
:1000F000E66E92EC01F0E55212000401126B136BF4
:10010000060ED8801255000E135511E378EC02F05C
:10011000E66E0B0E04011225E96E040E1321EA6E41
:10012000E552E750EF6E122B000E1323E9D71200B1
:10013000836A956A69EC02F0E0DFC3DF53EC02F0FA
:100140000009FCE10B0EE66E040EE66E1BEC02F0FD
:0E015000E552E55253EC02F00009FCE1FFD746
:02015E00060E8B
:10016000F66E000EF76E000EF86E04010900F550F1
:10017000066F0900F550076F03E1066701D03DD017
:100180000900F550016F0900F550026F0900F550A4
:10019000036F09000900F550E96E0900F550EA6E99
:1001A000090009000900F550046F0900F550056FBA
:1001B00009000900F6CF08F4F7CF09F4F8CF0AF4E4
:1001C00001C4F6FF02C4F7FF03C4F8FF040104539F
:1001D00002E1055307E00900F550EE6E0407F8E26E
:1001E0000507F9D708C4F6FF09C4F7FF0AC4F8FFEA
:0C01F00004010607000E075BBFD71200D9
:0401FC00D9CFE6FF72
:10020000E1CFD9FF0F0E8316951695949592959090
:100210008C948C928C9055EC00F0300E33D8050EF7
:10022000E66E3CEC02F0E552300E2CD8010EE66E84
:100230003CEC02F0E552320E25D829D8FEE127D851
:10024000FEE1FE0EDBCFE6FF92EC01F0E5521FD897
:10025000FEE1080E17D81BD8FEE10F0E13D817D8F1
:10026000FEE1010E0FD813D8FEE1040E0BD80FD813
:10027000FEE1800EE66E0AEC00F0E552E552E7CFB3
:10028000D9FF1200E66E92EC01F0E552120053EC39
:0602900002F0000912005B
:0A029600D9CFE6FFE1CFD9FF0F0E2C
:1002A00095168316FE0EDB504009F00B83128C94DA
:1002B0008C920ED80F0E8316FE0EDB38F00BF00B6F
:1002C000831206D8F00E9512E552E7CFD9FF12003F
:0E02D00042EC00F08C8042EC00F08C901200AA
:0202DE00D9CF76
:1002E000E6FFE1CFD9FF0F0E95168316FE0EDB5009
:1002F000F00B83128C828C940ED80F0E8316FE0E98
:10030000DB38F00BF00B831206D8F00E9512E55295
:10031000E7CFD9FF120042EC00F08C8042EC00F0F5
:040320008C901200AB
:0C032400D9CFE6FFE1CFD9FF0F0E9516F0
:100330008316FE0EDB50F00B83128C948C920ED839
:100340000F0E8316FE0EDB38F00BF00B831206D86F
:10035000F00E9512E552E7CFD9FF120042EC00F003
:0A0360008C8042EC00F08C9012003B
:06036A00D9CFE6FFE1CF50
:10037000D9FFE6528C848C8242EC00F08C8042ECF7
:1003800000F0F00E8314DF6E8C9042EC00F08C8055
:1003900042EC00F083380F0B0F0BDF128C908C9225
:0E03A0008C94DF50E552E552E7CFD9FF1200F2
:0203AE00D9CFA5
:1003B000E6FFE1CFD9FFE6528C848C9242EC00F04C
:1003C0008C8042EC00F0F00E8314DF6E8C9042ECD7
:1003D00000F08C8042EC00F083380F0B0F0BDF1223
:1003E0008C908C947F0EDF14E552E552E7CFD9FF55
:0203F0001200F9
:0E03F200D9CFE6FFE1CFD9FF14D80FE053ECCE
:1004000002F00009FCE10ED8E66E6FEC01F0E55257
:10041000FD0EDB2AFE0EF1E3DB2AEFD7E552E7CF34
:10042000D9FF1200FD0EDBCFF6FFFE0EDBCFF7FF8C
:060430000800F550120067
:0A043600D9CFE6FFE1CFD9FF14D8BB
:100440000FE053EC02F00009FCE10ED8E66E6FEC11
:1004500001F0E552FD0EDB2AFE0EF1E3DB2AEFD7B9
:10046000E552E7CFD9FF1200FD0EDBCFE9FFFE0E0C
:08047000DBCFEAFFEF501200A0
:08047800FF0EE350036EEF0ECE
:1004800001D0F30EE76EE72E43EF02F00C0E026E82
:10049000E76AE72E49EF02F0022E48EF02F0032E42
:0604A00041EF02F0120022
:0A04A6008C848C9242EC00F08C80F4
:1004B00042EC00F083AE02D003D8010C01D8000C4E
:1004C0008C9042EC00F08C8042EC00F08C908C948C
:0204D000120018
:0E04D200540E906F410E916F500E926F4F0EB0
:1004E000936F550E946F540E956F210E966F1200F8
:0C04F00000EE90F01251E926EF501200CF
:0404FC00000EF36E8D
:1005000000EE00F0060E01D81200EA6002D0EE6A9A
:0C051000FCD7F350E9601200EE6AFCD743
:04051C0013EE81F069
:1005200023EE81F0F86A019CAFEC00F03EEC00F0A5
:0805300098EC00F0FBD712006B
:020000040030CA
:0100010022DC
:010003000EEE
:010006008178
:00000001FF
